:0200000470008A
:100000006F00C0006F0000006F00C0029702000088
:10001000938282027390523073500030735040309C
:1000200097410000938101F1176100001301817F66
:100030006F00001E130101F823201100232221006C
:10004000232431002326410023285100232A610064
:10005000232C7100232E8100232091022322A10250
:100060002324B1022326C1022328D102232AE1023C
:10007000232CF102232E0103232011052322210525
:10008000232431052326410523285105232A610510
:10009000232C7105232E8105232091072322A107FC
:1000A0002324B1072326C1072328D107232AE107E8
:1000B000232CF107F3221034232E5106732520340C
:1000C000F325103413060100EF00404C7310153473
:1000D000B72200009382028073A0023083200100C7
:1000E00003214100832181000322C10083220101F9
:1000F00003234101832381010324C10183240102DD
:1001000003254102832581020326C10283260103C0
:1001100003274103832781030328C10383280104A4
:100120000329410483298104032AC104832A010588
:10013000032B4105832B8105032CC105832C01066C
:10014000032D4106832D8106032EC106832E010750
:10015000032F4107832F810713010108730020300B
:10016000130101FE232E8100130401022326A4FEA5
:100170002324B4FE2322C4FE6F00C0028327C4FEE2
:1001800003A70700832784FE23A0E7008327C4FE7C
:10019000938747002326F4FE832784FE9387470036
:1001A0002324F4FE032784FE832744FEE3F8E7FCC0
:1001B000130000000324C101130101026780000045
:1001C000130101FD2326810213040103232EA4FC45
:1001D000232CB4FC8327C4FD2326F4FE6F0080018A
:1001E0008327C4FE23A007008327C4FE938747000C
:1001F0002326F4FE0327C4FE832784FDE3F2E7FEF3
:10020000130000000324C1021301010367800000F2
:10021000130101FE232E1100232C8100130401027F
:10022000B73700709387076C2326F4FE8327C4FE3C
:100230002320F4FE232204FE232404FEB73700709B
:1002400013860773B737007093850773B73700704D
:1002500013850773EFF0DFF013860188B73700705E
:1002600093850773B737007013850773EFF05FEF5F
:100270009385018913850188EFF09FF4B7570070CB
:100280009385078213850189EFF09FF3930704FE9E
:100290009385070013051000EF20101913000000CC
:1002A0008320C10103248101130101026780000042
:1002B000130101FF23268100130401011300000034
:1002C0000324C1001301010167800000130101FD37
:1002D0002326810213040103232EA4FCF32740F1FB
:1002E0002326F4FE8327C4FE2324F4FE37070040B0
:1002F0008327C4FD93D75700832684FE9396560028
:10030000B386F600B717000093870780B387F6001F
:1003100093972700B307F70083A707002322F4FE73
:100320008327C4FD93F7F70113071000B317F700F5
:1003300093C7F7FF032744FEB377F7002322F4FEA9
:10034000370700408327C4FD93D75700832684FED8
:1003500093965600B386F600B71700009387078080
:10036000B387F60093972700B307F700032744FEEF
:1003700023A0E700130000000324C10213010103BE
:1003800067800000130101FE232E81001304010287
:10039000F32740F12326F4FE8327C4FE2324F4FE32
:1003A00037070040832784FE938707209397C70071
:1003B000B307F70083A74700138507000324C10193
:1003C0001301010267800000130101FD2326810251
:1003D00013040103232EA4FCF32740F12326F4FE8B
:1003E0008327C4FE2324F4FE37070040832784FEBE
:1003F000938707209397C700B307F7000327C4FD2F
:1004000023A2E700130000000324C102130101032B
:1004100067800000130101FE232E810013040102F6
:1004200093070008F3B707302326F4FEF377043070
:100430002324F4FE130000000324C1011301010270
:1004400067800000130101FE232E1100232C810080
:100450001304010293070008F3B747302326F4FE84
:10046000EF00002437070044B7C70000B307F700C8
:1004700003A8C7FF83A787FF83A5018803A6418838
:1004800037050044732740F12324E4FE832884FECB
:10049000B386B700138306003333F3003307C80075
:1004A000B307E300138707009387060013080700CC
:1004B00037170000130707803387E800131737004A
:1004C0003307E5002320F7002322070193070008E4
:1004D000F3A747302322F4FE130000008320C1015C
:1004E000032481011301010267800000130101FE52
:1004F000232E1100232C810013040102EFF09FE84A
:100500002326A4FEA30504FEB73700700327C4FE0C
:100510001317270093870773B307F70083A7070014
:10052000E780070093070500A305F4FE0325C4FE3A
:10053000EFF09FE90347B4FE930710006316F7003E
:100540000325C4FEEFF09FD8130000008320C101F3
:10055000032481011301010267800000130101FFE0
:10056000232611002324810013040101EF00C01190
:10057000B707004423A00700130000008320C10038
:10058000032481001301010167800000130101FBB6
:10059000232611042324810413040105232EA4FA25
:1005A000232CB4FA8327C4FB63D207020327C4FBBE
:1005B000B707008093C7F7FF3377F7009307B000C2
:1005C0006316F700EFF09FF26F00800A8327C4FBE9
:1005D00063D207020327C4FBB707008093C7F7FF66
:1005E0003377F700930770006316F700EFF09FE58D
:1005F0006F0000088327C4FB63D207020327C4FBF4
:10060000B707008093C7F7FF3377F70093073000F1
:100610006316F700EFF09FF46F008005F327403476
:100620002326F4FE8327C4FE2324F4FEF32730346C
:100630002322F4FE832744FE2320F4FEF3275030C8
:10064000232EF4FC8327C4FD232CF4FCF327003471
:10065000232AF4FC832744FD2328F4FCF3270030ED
:100660002326F4FC8327C4FC2324F4FC730010002D
:10067000832784FB138507008320C104032481049E
:100680001301010567800000130101FF23261100FB
:1006900023248100130401011305A000EF00004290
:1006A000130101FF23268100130401011300000040
:1006B0000324C1001301010167800000130101FF41
:1006C000232681001304010193070000138507000E
:1006D0000324C1001301010167800000130101FF21
:1006E00023268100130401019307000013850700EE
:1006F0000324C1001301010167800000130101FF01
:1007000023268100130401019307000013850700CD
:100710000324C1001301010167800000130101FFE0
:1007200023268100130401019307000013850700AD
:100730000324C1001301010167800000130101FFC0
:10074000232681001304010193070000138507008D
:100750000324C1001301010167800000130101FFA0
:10076000232681001304010193070000138507006D
:100770000324C1001301010167800000130101FF80
:10078000232681001304010193070000138507004D
:100790000324C1001301010167800000130101FF60
:1007A000232681001304010193070000138507002D
:1007B0000324C1001301010167800000130101FF40
:1007C000232681001304010193070000138507000D
:1007D0000324C1001301010167800000130101FF20
:1007E00023268100130401019307000013850700ED
:1007F0000324C1001301010167800000130101FF00
:1008000023268100130401019307000013850700CC
:100810000324C1001301010167800000130101FFDF
:1008200023268100130401019307000013850700AC
:100830000324C1001301010167800000130101FFBF
:10084000232681001304010193070000138507008C
:100850000324C1001301010167800000130101FF9F
:10086000232681001304010193070000138507006C
:100870000324C1001301010167800000130101FF7F
:10088000232681001304010193070000138507004C
:100890000324C1001301010167800000130101FF5F
:1008A000232681001304010193070000138507002C
:1008B0000324C1001301010167800000130101FF3F
:1008C000232681001304010193070000138507000C
:1008D0000324C1001301010167800000130101FF1F
:1008E00023268100130401019307000013850700EC
:1008F0000324C1001301010167800000130101FFFF
:1009000023268100130401019307000013850700CB
:100910000324C1001301010167800000130101FFDE
:1009200023268100130401019307000013850700AB
:100930000324C1001301010167800000130101FFBE
:10094000232681001304010193070000138507008B
:100950000324C1001301010167800000130101FF9E
:10096000232681001304010193070000138507006B
:100970000324C1001301010167800000130101FF7E
:10098000232681001304010193070000138507004B
:100990000324C1001301010167800000130101FF5E
:1009A000232681001304010193070000138507002B
:1009B0000324C1001301010167800000130101FF3E
:1009C000232681001304010193070000138507000B
:1009D0000324C1001301010167800000130101FF1E
:1009E00023268100130401019307000013850700EB
:1009F0000324C1001301010167800000130101FFFE
:100A000023268100130401019307000013850700CA
:100A10000324C1001301010167800000130101FFDD
:100A200023268100130401019307000013850700AA
:100A30000324C1001301010167800000130101FFBD
:100A4000232681001304010193070000138507008A
:100A50000324C1001301010167800000130101FF9D
:100A6000232681001304010193070000138507006A
:100A70000324C1001301010167800000130101FF7D
:100A8000232681001304010193070000138507004A
:100A90000324C1001301010167800000130101FF5D
:100AA000232681001304010193070000138507002A
:100AB0000324C1001301010167800000130101FE3E
:100AC000232E8100130401022326A4FE6F000000E0
:100AD000130101FE232E1100232C810013040102B7
:100AE000F32700302326F4FE8327C4FE2324F4FEDC
:100AF000EFF05F92832784FE138507008320C101F6
:100B00000324810113010102678000002320B50046
:100B1000678000000325050067800000138E060033
:100B2000331EBE00337ECE00032305009303060070
:100B300093C3F3FF337373003363C3012320650052
:100B400067800000032505003375C5003355B500E7
:100B5000678000002310B5006780000003150500C2
:100B600067800000138E0600331EBE00337ECE0069
:100B7000031305009303060093C3F3FF337373005D
:100B80003363C3012310650067800000031505006F
:100B90003375C5003355B500678000002300B500EC
:100BA000678000000305050067800000138E0600C3
:100BB000331EBE00337ECE00030305009303060000
:100BC00093C3F3FF337373003363C30123006500E2
:100BD00067800000030505003375C5003355B50077
:100BE00067800000130101FD2326110223248102E6
:100BF00013040103232EA4FC93870500A30DF4FC2A
:100C00008347B4FDA307F4FE9307F4FE1306100018
:100C1000938507000325C4FDEF00506D130000000D
:100C20008320C102032481021301010367800000B5
:100C3000130101FE232E1100232C81001304010255
:100C40002326A4FE2324B4FE130000001306100084
:100C5000832584FE0325C4FEEF00907493070500EE
:100C6000E38607FE130000008320C10103248101F5
:100C70001301010267800000130101FD2326110208
:100C80002324810213040103232EA4FC232CB4FC8F
:100C9000232AC4FC231704FE232404FE6F00000C47
:100CA000930734FE938507000325C4FDEFF05FF83A
:100CB000834734FE93978700139707011357074123
:100CC0008317E4FEB347F7009397070193D70741D3
:100CD0002317F4FE232204FE6F0000058317E4FEB1
:100CE00063D807028357E4FE939717001397070111
:100CF00013570741B717000093871702B347F70050
:100D00009397070193D707412317F4FE6F00000163
:100D10008357E4FE939717002317F4FE832744FEBE
:100D2000938717002322F4FE032744FE93077000E5
:100D3000E3F6E7FA834634FE832784FD1387170022
:100D4000232CE4FC13978601135787412380E70087
:100D5000832784FE938717002324F4FE032784FE51
:100D6000832744FDE36EF7F28357E4FE1385070003
:100D70008320C10203248102130101036780000064
:100D8000130101FD23261102232481021304010310
:100D9000232EA4FC232CB4FC93070600A30BF4FC25
:100DA000930784FE13062000938507000325C4FDE6
:100DB000EFF09FEC13060008832584FD0325C4FD96
:100DC000EFF09FEB930705002317F4FE930744FE13
:100DD00013062000938507000325C4FDEFF0DFE92B
:100DE000834744FE9397070193D7070193978700A2
:100DF0002316F4FE834754FE139707011357070188
:100E00008357C4FEB307F7002316F4FE0357C4FE4E
:100E10008357E4FE6312F702834784FE034774FDA1
:100E2000631CF700034794FE834774FD93C7F7FFE5
:100E300093F7F70F630CF700930580010325C4FDBA
:100E4000EFF05FDA9307F0FF6F0080009307000078
:100E5000138507008320C1020324810213010103CB
:100E600067800000130101FD232611022324810263
:100E700013040103232EA4FC232CB4FC93070600C7
:100E8000A30BF4FC231304FE930510000325C4FDFB
:100E9000EFF05FD5834774FD938507000325C4FDFC
:100EA000EFF05FD4834774FD93C7F7FF93F7F70F15
:100EB000938507000325C4FDEFF0DFD2232604FE4F
:100EC0006F00800B832784FD13871700232CE4FC1D
:100ED00083C70700A302F4FE834754FE93850700EF
:100EE0000325C4FDEFF01FD0830754FE93978700BE
:100EF0001397070113570741831764FEB347F700A1
:100F00009397070193D707412313F4FE232404FE8C
:100F10006F000005831764FE63D80702835764FEE1
:100F2000939717001397070113570741B71700004E
:100F300093871702B347F7009397070193D70741A9
:100F40002313F4FE6F000001835764FE939717008C
:100F50002313F4FE832784FE938717002324F4FED3
:100F6000032784FE93077000E3F6E7FA8327C4FEA5
:100F7000938717002326F4FE0327C4FE9307F00788
:100F8000E3F2E7F4835764FE93D787009397070152
:100F900093D7070193F7F70F938507000325C4FD47
:100FA000EFF05FC4835764FE93F7F70F9385070054
:100FB0000325C4FDEFF01FC3930744FE938507008C
:100FC0000325C4FDEFF0DFC6834744FE1385070009
:100FD0008320C10203248102130101036780000002
:100FE000130101FC232E1102232C8102130401049E
:100FF0002326A4FC2324B4FC93071000A303F4FECF
:10100000232004FE930530040325C4FCEFF09FBDAC
:101010009307F0FF2326F4FE6F0000018327C4FE30
:101020009387F7FF2326F4FE9307F4FD13061000C1
:10103000938507000325C4FCEF0090369307050055
:10104000639607008327C4FEE39A07FC8327C4FE48
:10105000639407006FF01FFB13000000232404FEBD
:101060006F00400A8347F4FD130710006388E70010
:10107000130740006386E7066F000008032784FC1F
:10108000832704FEB307F700034774FE1306070027
:10109000938507000325C4FCEFF09FCE2324A4FE14
:1010A000832784FE63900706834774FE93871700A7
:1010B000A303F4FE832704FE938707082320F4FE8E
:1010C000930560000325C4FCEFF0DFB19307F4FD46
:1010D000938507000325C4FCEFF09FB56F008002E5
:1010E000930560000325C4FCEFF0DFAF832704FE07
:1010F0002324F4FE6F0000019307F0FF2324F4FE85
:1011000013000000832784FEE38E07F4832704FE88
:10111000138507008320C103032481031301010405
:1011200067800000130101FD2326110223248102A0
:1011300013040103232EA4FC232CB4FC232AC4FC97
:1011400093071000A307F4FE9307F0FF2322F4FE99
:10115000832744FD93F7F707638E0700832744FD39
:1011600093870708232AF4FC832744FD93F707F8A5
:10117000232AF4FC232404FE6F00C004930734FEEA
:10118000938507000325C4FDEFF09FAA834734FE33
:10119000130730046380E702130710076380E70E2C
:1011A00013075001639EE700930710002324F4FE09
:1011B0006F004001930710002324F4FE6F008000AD
:1011C00013000000832784FEE38A07FA232404FE29
:1011D00093071000A307F4FE6F0080098347F4FE15
:1011E00013860700832584FD0325C4FDEFF09FC708
:1011F00093070500A301F4FE834734FE1307600044
:101200006388E70013075001638EE7026F00C00296
:101210008347F4FE93871700A307F4FE832744FD5A
:10122000938707F8232AF4FC832784FD9387070814
:10123000232CF4FC6F0040019307F0FF2324F4FEFD
:101240006F00800013000000832744FD63920702B3
:10125000930540000325C4FDEFF0DF98930734FEAB
:10126000938507000325C4FDEFF09F9C6F004001AC
:10127000832784FEE38407F66F00800013000000DC
:101280008320C1020324810213010103678000004F
:10129000130101FF232611002324810013040101FF
:1012A00013060002B7050260B74700701385077C7C
:1012B000EF001022B74700701385077CEF00503312
:1012C000130000008320C1000324810013010101E9
:1012D00067800000130101FD2326110223248102EF
:1012E00013040103232EA4FC232CB4FC232AC4FCE6
:1012F0009307F0F9A307F4FE93050000B7470070C9
:101300001385077CEF00D0399306C4FE9307F4FEE3
:10131000130730001306100093850700B7470070CD
:101320001385077CEF00105493050000B747007049
:101330001385077CEF00D0440347C4FE8327C4FD18
:101340002380E7000347D4FE832784FD2380E70042
:101350000347E4FE832744FD2380E70013000000D9
:101360008320C1020324810213010103678000006E
:10137000130101FD2326110223248102130401031A
:10138000232EA4FC232CB4FC232AC4FC9307300096
:101390002304F4FE8327C4FD93D7070193F7F70FC7
:1013A000A304F4FE8327C4FD93D7870093F7F70FB8
:1013B0002305F4FE8327C4FD93F7F70FA305F4FE7E
:1013C000230604FEA30604FE93050000B747007041
:1013D0001385077CEF00D02CEF00C058EF000052BF
:1013E000832744FD1397070113570701930784FED2
:1013F000832684FD1306400093850700B7470070DD
:101400001385077CEF001046EF00404F9305000066
:10141000B74700701385077CEF009036130000007B
:101420008320C102032481021301010367800000AD
:10143000130101FE232E1100232C8100130401024D
:10144000930760002306F4FE93050000B747007081
:101450001385077CEF00D024EF00404A9307C4FEB9
:101460001307000093060000130610009385070081
:10147000B74700701385077CEF00D03E930710003C
:101480002306F4FEA30604FEEF0040479307C4FEC4
:101490001307000093060000130620009385070041
:1014A000B74700701385077CEF00D03BEF00004585
:1014B00093050000B74700701385077CEF00502CA0
:1014C000130000008320C1010324810113010102E4
:1014D00067800000130101FD2326110223248102ED
:1014E00013040103232EA4FC0327C4FDB7F7FFFF59
:1014F000B377F700232EF4FC930760002306F4FE75
:1015000093050000B74700701385077CEF00501962
:10151000EF00C03E9307C4FE1307000093060000CF
:101520001306100093850700B74700701385077CEA
:10153000EF005033930700022306F4FE8327C4FD17
:1015400093D7070193F7F70FA306F4FE8327C4FD93
:1015500093D7870093F7F70F2307F4FE8327C4FD83
:1015600093F7F70FA307F4FEEF004039EF00803F39
:101570009307C4FE13070000930600001306400003
:1015800093850700B74700701385077CEF00902D07
:10159000EF00C036EF00003D93050000B747007034
:1015A0001385077CEF00D01D130000008320C102CB
:1015B000032481021301010367800000130101DD90
:1015C000232611222324812213040123232EA4DCA9
:1015D000232CB4DC930706002328D4DC231BF4DC83
:1015E00093070700231AF4DC231704FE035764DD76
:1015F000835744DDB307F7002316F4FE231704FED8
:101600006F0000038357E4FE032784DD3307F700F0
:101610008357E4FE03470700930604FFB387F600F1
:10162000238CE7DE8357E4FE938717002317F4FE2D
:101630000357E4FE835764DDE366F7FC231704FEDB
:101640006F0080038357E4FE032704DD3307F700B0
:10165000835664DD8357E4FEB387F6000347070033
:10166000930604FFB387F600238CE7DE8357E4FE7E
:10167000938717002317F4FE0357E4FE835744DDD6
:10168000E362F7FC0356C4FE930784DE13070000F1
:101690009306000093850700B74700701385077C09
:1016A000EF00501C130000008320C122032481227C
:1016B0001301012367800000130101FC232E110296
:1016C000232C8102130401042326A4FC2324B4FC4C
:1016D0002322C4FC93050000B74700701385077CE4
:1016E000EF00007C93076000230EF4FCEF00002164
:1016F0009307C4FD130700009306000013061000B3
:1017000093850700B74700701385077CEF0090159D
:1017100093079003230EF4FC8327C4FC93D707019F
:1017200093F7F70FA30EF4FC8327C4FC93D787002D
:1017300093F7F70F230FF4FC8327C4FC93F7F70FFD
:10174000A30FF4FCEF00801B9307C4FD13070000F8
:10175000930600001306400093850700B74700700A
:101760001385077CEF001010EF00C01F9307600087
:10177000230EF4FCEF0080189307C4FD130700004C
:10178000930600001306100093850700B74700700A
:101790001385077CEF00100D232604FE832744FCED
:1017A0002324F4FE8327C4FC2322F4FE6F00400FA1
:1017B000EF00401B832744FE93F7F70F1307001039
:1017C000B307F7402324F4FE032744FC8327C4FE19
:1017D000B307F7402320F4FE032704FE832784FE8B
:1017E0006376F700832704FE2324F4FEEF00001144
:1017F00093076000230EF4FC9307C4FD1307000059
:10180000930600001306100093850700B747007089
:101810001385077CEF001005EF00400E93072000B2
:10182000230EF4FC832744FE93D7070193F7F70FA9
:10183000A30EF4FC832744FE93D7870093F7F70F9A
:10184000230FF4FC832744FE93F7F70FA30FF4FC58
:10185000032784FC8327C4FEB306F700832784FE96
:1018600013970701135707019307C4FD13064000A0
:1018700093850700B74700701385077CEFF01FD4EE
:10188000032744FE832784FEB307F7002322F4FED8
:101890000327C4FE832784FEB307F7002326F4FE44
:1018A0000327C4FE832744FCE364F7F0930740005A
:1018B000230EF4FCEF0080049307C4FD130700001F
:1018C000930600001306100093850700B7470070C9
:1018D0001385077CEF00007993050000B74700707F
:1018E0001385077CEF00C069130000008320C1034B
:1018F000032481031301010467800000130101FE2A
:10190000232E1100232C81001304010293075000A1
:101910002307F4FE9306F4FE9307E4FE130710007A
:101920001306100093850700B74700701385077CE6
:10193000EF0040738347F4FE93F7170093F7F70F18
:10194000A307F4FE0347F4FE93071000E304F7FC3B
:10195000130000008320C10103248101130101024F
:1019600067800000130101FE232E1100232C81004B
:1019700013040102232604FE930700072305F4FE47
:101980009306B4FE9307A4FE13071000130610007D
:1019900093850700B74700701385077CEF00806CC4
:1019A0008327C4FE938717002326F4FE8347B4FEE3
:1019B0009397870193D78741E3D407FC8347B4FE0D
:1019C000138507008320C101032481011301010253
:1019D00067800000130101FD2326110223248102E8
:1019E00013040103232EA4FC232CB4FC930706004C
:1019F00013870600231BF4FC93070700A30AF4FCDB
:101A00008327C4FD638A070C034754FD93077000C6
:101A100063E4E70C035764FDB7270000637EF70A11
:101A2000832784FD13878700835764FD93F7F70F9F
:101A30009385070013050700EFF04F96832784FD79
:101A40009386C700034754FD835764FD93D75740DF
:101A500093F7877FB367F700938507001385060028
:101A6000EFF0CF938327C4FD032784FD23A0E70075
:101A70008327C4FD83A70700938707011385070009
:101A8000EFF04F929307050093F72700A307F4FEAA
:101A90006F0080038327C4FD83A707009387470057
:101AA00013850700EFF00F908327C4FD83A707007D
:101AB0009387070113850700EFF0CF8E930705008A
:101AC00093F72700A307F4FE8347F4FEE39407FC93
:101AD0008327C4FD23820700130000008320C10276
:101AE000032481021301010367800000130101FD3B
:101AF000232611022324810213040103232EA4FCB4
:101B0000232CB4FC232AC4FC8327C4FD638007086C
:101B1000832784FD638C0706832744FD63880706BB
:101B2000232604FE6F00C0058327C4FD83A707009A
:101B30009387070113850700EFF0CF869307050011
:101B400093F71700A305F4FE8347B4FEE38E07FC6A
:101B50008327C4FD83A60700032784FD8327C4FED3
:101B6000B307F70083C707009385070013850600B6
:101B7000EFF0CF828327C4FE938717002326F4FE5D
:101B80000327C4FE832744FDE360F7FA1300000037
:101B90008320C10203248102130101036780000036
:101BA000130101FD23261102232481022322910225
:101BB00013040103232EA4FC232CB4FC232AC4FC0D
:101BC000232404FE8327C4FD6386070E832784FD38
:101BD0006382070E832744FD638E070C232404FED3
:101BE0008327C4FD83A70700938707011385070098
:101BF000EFE05FFB93070500A303F4FE8327C4FD1A
:101C000003C74700834774FEB367F70013F7F70F66
:101C10008327C4FD2382E700834774FE93F72700E0
:101C2000A307F4FE6F00C0078327C4FD83A7070046
:101C300093864700032784FD832784FEB304F700BF
:101C400013850600EFE01FF6930705002380F400DC
:101C5000832784FE938717002324F4FE8327C4FD83
:101C600083A707009387070113850700EFE09FF321
:101C700093070500A303F4FE8327C4FD03C74700B1
:101C8000834774FEB367F70013F7F70F8327C4FD8C
:101C90002382E700834774FE93F72700A307F4FE2F
:101CA0008347F4FE63880700032784FE832744FDEF
:101CB000E36CF7F6832784FE138507008320C102B7
:101CC0000324810283244102130101036780000081
:101CD000130101FE232E1100232C810013040102A5
:101CE0002326A4FE2324B4FE930706002313F4FE48
:101CF0008327C4FE6384070E832784FE6380070E58
:101D00001306C004930500000325C4FEEF10D00C99
:101D10008327C4FE032784FE23A0E700035764FE45
:101D20009307000263EEE700835764FE638A0700AF
:101D30008327C4FE035764FE2392E7046F0000016B
:101D40008327C4FE130710002392E7048327C4FEF1
:101D500083A70700930600001306100093050000F8
:101D600013850700EFE09FE48327C4FE83A70700E5
:101D7000938747029305000013850700EFE01FE2F9
:101D80008327C4FE83A707009387C701930530000C
:101D900013850700EFE09FE08327C4FE83A70700B9
:101DA000938747009305F00F13850700EFE01FDFCF
:101DB0008327C4FE83A7070093878701930500004C
:101DC00013850700EFE09FDD8327C4FE83A707008C
:101DD0009305300013850700EFE05FDC130000007F
:101DE0008320C101032481011301010267800000E7
:101DF000130101FE232E1100232C81001304010284
:101E00002326A4FE8327C4FE638207088327C4FE1B
:101E100083A7070093060000130610009305000037
:101E200013850700EFE09FD88327C4FE23A407048F
:101E30008327C4FE83A707009387C701930530005B
:101E400013850700EFE09FD58327C4FE83A7070013
:101E5000938747009305F00F13850700EFE01FD429
:101E60008327C4FE83A7070093878701930500009B
:101E700013850700EFE09FD28327C4FE83A70700E6
:101E80009305300013850700EFE05FD113000000D9
:101E90008320C10103248101130101026780000036
:101EA000130101FD232611022324810213040103DF
:101EB000232EA4FC232CB4FC232604FE8327C4FD7C
:101EC0006386070A032784FD9307700063E0E70A2F
:101ED0008327C4FD83A70700130620009305100085
:101EE00013850700EFE01FCF930705006380070805
:101EF0008327C4FD83A70700938707021306000109
:101F00009305400013850700EFE0DFCC9307050041
:101F100013870700930710006316F7000325C4FD1D
:101F2000EF0080708327C4FD83A7070093874702D3
:101F300013850700EFE01FC793070500938607008E
:101F400013071000832784FDB317F700B3E7F600EB
:101F50002326F4FE8327C4FD83A707009387470247
:101F60008325C4FE13850700EFE05FC31300000064
:101F70008320C10203248102130101036780000052
:101F8000130101FD232611022324810213040103FE
:101F9000232EA4FC232CB4FC232604FE8327C4FD9B
:101FA0006388070A032784FD9307700063E2E70A4A
:101FB0008327C4FD83A707001306200093051000A4
:101FC00013850700EFE01FC1930705006382070830
:101FD0008327C4FD83A70700938707021306000128
:101FE0009305400013850700EFE0DFBE930705006F
:101FF00013870700930710006316F7000325C4FD3D
:10200000EF0080628327C4FD83A707009387470200
:1020100013850700EFE01FB99307050093860700BB
:1020200013071000832784FDB317F70093C7F7FF4A
:10203000B3F7F6002326F4FE8327C4FD83A7070029
:10204000938747028325C4FE13850700EFE01FB581
:10205000130000008320C102032481021301010345
:1020600067800000130101FD232611022324810251
:1020700013040103232EA4FC232CB4FC93070600B5
:102080002328D4FC231BF4FC93070700231AF4FC39
:10209000232204FE231704FE231604FE231504FE48
:1020A000231404FE8327C4FD638607568327C4FDDB
:1020B00083A707001306200093051000138507006F
:1020C000EFE05FB19307050063860754035764FD93
:1020D000835744FDB307F700638E0752035764FD2F
:1020E000835744FDB307F7009387F7FF2322F4FEDD
:1020F0008327C4FD83A707009387C701930530009A
:1021000013850700EFE09FA98327C4FD83A707007D
:10211000938707021306000193054000138507000B
:10212000EFE05FAB930705001387070093071000EC
:102130006316F7000325C4FDEF00004F8327C4FD9D
:1021400083A7070093060000130610009305000004
:1021500013850700EFE09FA56F00C0060357C4FE7C
:10216000835764FD6378F7028327C4FD83A70700C4
:102170009386C7008357C4FE032784FDB307F70087
:1021800083C707009385070013850600EFE01F98BB
:102190006F00C0018327C4FD83A707009387C70092
:1021A0009305000013850700EFE05F96835784FED8
:1021B000938717002314F4FE8357C4FE93871700F8
:1021C0002316F4FE8357C4FE032744FE63FAE70098
:1021D0008327C4FD83D747040357C4FEE360F7F8A1
:1021E0008357C4FE032744FE631EF7068327C4FDFE
:1021F00083D747040357C4FE6376F7060357C4FE2C
:10220000835764FD6378F7028327C4FD83A7070023
:10221000938687028357C4FE032784FDB307F70024
:1022200083C707009385070013850600EFE01F8E24
:102230006F00C0018327C4FD83A70700938787022F
:102240009305000013850700EFE05F8C835784FE41
:10225000938717002314F4FE8357C4FE9387170057
:102260002316F4FE8327C4FD83A7070093061000FE
:10227000130610009305000013850700EFE01F937D
:102280006F00C00D8327C4FD83D74704035784FE26
:10229000637EF7068357C4FE032744FE6318F702E4
:1022A0008327C4FD83A70700938687028357C4FE54
:1022B000032784FDB307F70083C707009385070052
:1022C00013850600EFE09F846F00C0028327C4FDE2
:1022D00083A707009386C7008357C4FE032784FDA6
:1022E000B307F70083C7070093850700138506002F
:1022F000EFE0DF818357C4FE938717002316F4FEB7
:10230000835784FE938717002314F4FE8327C4FDAC
:1023100083A7070093870702130640009305200058
:1023200013850700EFE01F8B9307050063980702F2
:102330008327C4FD83A707009387870013850700C1
:10234000EFE04FFD8357E4FE938717002317F4FE59
:10235000835784FE9387F7FF2314F4FE0357C4FECC
:10236000835764FDE360F7F26F00000A8327C4FD22
:1023700083D74704035784FE6370F7048357C4FE72
:10238000032744FE63FAE7028327C4FD83A70700FF
:102390009387C7009305000013850700EFE00FF750
:1023A0008357C4FE938717002316F4FE835784FED9
:1023B000938717002314F4FE8327C4FD83A7070027
:1023C000938707021306400093052000138507003A
:1023D000EFE05F8093070500639807028327C4FD41
:1023E00083A707009387870013850700EFE08FF22C
:1023F0008357E4FE938717002317F4FE835784FE68
:102400009387F7FF2314F4FE0357E4FE835764FD1C
:10241000E36EF7F46F00800B8327C4FD83D7470476
:10242000035784FE637AF7028327C4FD83A707005E
:102430009387C7009305000013850700EFE00FEDB9
:102440008357C4FE938717002316F4FE835784FE38
:10245000938717002314F4FE8327C4FD83A7070086
:102460009387070213064000930520001385070099
:10247000EFE04FF693070500639A07048327C4FD36
:1024800083A707009387870013850700EFE08FE895
:10249000930605008357A4FE032704FDB307F70046
:1024A00013F7F60F2380E7008357A4FE93871700E6
:1024B0002315F4FE8357E4FE938717002317F4FED9
:1024C000835784FE9387F7FF2314F4FE8357C4FEDB
:1024D000032744FEE3E2E7F46F00800B8327C4FD8B
:1024E00083D74704035784FE637AF7028327C4FD2A
:1024F00083A70700938787029305000013850700D1
:10250000EFE0CFE08357C4FE938717002316F4FE55
:10251000835784FE938717002314F4FE8327C4FD9A
:1025200083A7070093870702130640009305200046
:1025300013850700EFE00FEA93070500639A07048D
:102540008327C4FD83A707009387870013850700AF
:10255000EFE04FDC930605008357A4FE032704FD3C
:10256000B307F70013F7F60F2380E7008357A4FEA5
:10257000938717002315F4FE8357E4FE9387170013
:102580002317F4FE835784FE9387F7FF2314F4FE8A
:102590008357C4FE032744FEE302F7F46F00C0062E
:1025A0008327C4FD83A70700938707021306400013
:1025B0009305200013850700EFE0CFE193070500A6
:1025C000639407048327C4FD83A7070093878700CC
:1025D00013850700EFE00FD4930605008357A4FE90
:1025E000032704FDB307F70013F7F60F2380E70076
:1025F0008357A4FE938717002315F4FE8357E4FE48
:10260000938717002317F4FE8357E4FE032744FE45
:10261000E378F7F8130000008320C102032481024D
:102620001301010367800000130101FE232E110036
:10263000232C8100130401022326A4FE8327C4FE59
:1026400083A70700930600001306100093050000FF
:1026500013850700EFE08FD58327C4FE83A707000B
:102660009387C7019305300013850700EFE00FD370
:102670008327C4FE83A70700938747009305F00FC5
:1026800013850700EFE08FD18327C4FE83A70700DF
:102690009306100013061000930500001385070031
:1026A000EFE0CFD0130000008320C101032481019B
:1026B0001301010267800000130101FD23261102AE
:1026C0002324810213040103232EA4FC232CB4FC35
:1026D000232AC4FCA30704FE832784FD2324F4FEDD
:1026E0008327C4FD032784FD23A0E7008327C4FDBF
:1026F000032744FD23A2E700A30704FE832784FDEC
:102700002324F4FE6F00800293050000032584FE5D
:10271000EFE0CFC8832784FE938747002324F4FE8D
:102720008347F4FE93871700A307F4FE0347F4FEE4
:102730009307F001E3FAE7FC8327C4FD83A7470072
:1027400013071000638AE7021307100063E4E7062B
:10275000130720006384E7006F00000C8327C4FD8B
:1027600083A70700938707089305F0FF13850700E9
:10277000EFE0CFB96F00400A8327C4FD83A70700AD
:1027800013870708B70701009385F7FF13050700B4
:10279000EFE04FBC8327C4FD83A7070013874708DA
:1027A000B70701009385F7FF13050700EFE08FBA25
:1027B0006F0080068327C4FD83A70700938707085F
:1027C0009305F00F13850700EFE04FBD8327C4FD8D
:1027D00083A70700938747089305F00F1385070029
:1027E000EFE0CFBB8327C4FD83A70700938787084B
:1027F0009305F00F13850700EFE04FBA8327C4FD60
:1028000083A707009387C7089305F00F1385070078
:10281000EFE0CFB813000000130000008320C102D6
:10282000032481021301010367800000130101FDED
:10283000232611022324810213040103232EA4FC66
:10284000232CB4FC232AC4FC032784FD9307F00146
:1028500063E8E7028327C4FD83A707002326F4FE6D
:10286000832784FD939727000327C4FEB307F7004F
:102870002326F4FE832544FD0325C4FEEFE00FA9C3
:10288000130000008320C10203248102130101030D
:1028900067800000130101FE232E1100232C81000C
:1028A000130401022326A4FE2324B4FE8327C4FEBE
:1028B00083A7470013071000638AE702130710007D
:1028C00063EEE706130720006384E7006F00001043
:1028D0008327C4FE83A707009387070A832584FE06
:1028E00013850700EFE08FA26F00400E8327C4FE20
:1028F00083A707009387070A032784FE131707019E
:10290000135707019305070013850700EFE08FA415
:102910008327C4FE83A707001387470A832784FE03
:1029200093D707019397070193D707019385070072
:1029300013050700EFE00FA26F0040098327C4FED4
:1029400083A707009387070A032784FE1377F70FEF
:102950009305070013850700EFE04FA48327C4FE0B
:1029600083A707001387470A832784FE93D787002E
:1029700093F7F70F9385070013050700EFE00FA209
:102980008327C4FE83A707001387870A832784FE53
:1029900093D7070193F7F70F9385070013050700F7
:1029A000EFE0CF9F8327C4FE83A707001387C70AE2
:1029B000832784FE93D7870193F7F70F938507004A
:1029C00013050700EFE08F9D1300000013000000C7
:1029D0008320C101032481011301010267800000EB
:1029E000130101FD23261102232481021304010394
:1029F000232EA4FC232604FE8327C4FD83A74700BF
:102A000013071000638AE7021307100063E2E70868
:102A1000130720006384E7006F0080128327C4FD42
:102A200083A707009387070A13850700EFE08F8EBF
:102A30002326A4FE6F00C0108327C4FD83A70700D0
:102A40009387070A13850700EFE04F91930705006E
:102A5000138707008327C4FEB3E7E7002326F4FEAD
:102A60008327C4FD83A707009387470A13850700C0
:102A7000EFE0CF8E930705009397070113870700B8
:102A80008327C4FEB3E7E7002326F4FE6F00400B64
:102A90008327C4FD83A707009387070A13850700D0
:102AA000EFE0CF8B93070500138707008327C4FE51
:102AB000B3E7E7002326F4FE8327C4FD83A70700BE
:102AC0009387470A13850700EFE04F8993070500B6
:102AD00093978700138707008327C4FEB3E7E700B7
:102AE0002326F4FE8327C4FD83A707009387870A64
:102AF00013850700EFE08F86930705009397070182
:102B0000138707008327C4FEB3E7E7002326F4FEFC
:102B10008327C4FD83A707009387C70A138507008F
:102B2000EFE0CF8393070500939787011387070092
:102B30008327C4FEB3E7E7002326F4FE130000005A
:102B40008327C4FE138507008320C102032481026A
:102B50001301010367800000130101FE232E810091
:102B600013040102F32740F12324F4FE832784FE9B
:102B70002322F4FE232604FE6F00C0033707004023
:102B8000832744FE939657008327C4FEB386F6003E
:102B9000B717000093870780B387F6009397270045
:102BA000B307F70023A007008327C4FE938717000D
:102BB0002326F4FE8327C4FEE38207FC232604FEBB
:102BC0006F004002370700408327C4FE9397270019
:102BD000B307F70023A007008327C4FE93871700DD
:102BE0002326F4FE0327C4FE9307E001E3FCE7FC81
:102BF00037070040832744FE938707209397C70039
:102C0000B307F70023A00700B717000093870780DA
:102C1000F3A747302320F4FE130000000324C10172
:102C20001301010267800000130101FE232E110031
:102C3000232C810013040102EFF01FF29306100011
:102C40001306B003B7050160B75700701385C7803E
:102C5000EFE05FD813062000B7050060B75700709B
:102C600013854781EFF05FA5EFD09FE61306500074
:102C700093050000B757007013854781EFF01FBB25
:102C80001306500093051000B75700701385478155
:102C9000EFF0DFB91306500093052000B75700701E
:102CA00013854781EFF09FB813065000930530005D
:102CB000B757007013854781EFF05FB737070800FB
:102CC00023A4E188EFE0CFDCA30504FE9307B4FE64
:102CD0001306100093850700B75700701385C7804F
:102CE000EFE01FEC2326A4FE8327C4FE638C070AB3
:102CF0008347B4FE9387F7F9130760016368F70A07
:102D000013972700B73700709387876CB307F700D6
:102D100083A707006780070093051000B75700706E
:102D200013854781EFF01FB7EF00C01FA30504FE16
:102D30006F00000893052000B75700701385478186
:102D4000EFF05FB5EF000007A30504FE6F0040063B
:102D500093054000B757007013854781EFF09FB38C
:102D6000EF008060A30504FE6F00800493058000DF
:102D7000B757007013854781EFF0DFB1EF004023B4
:102D8000A30504FE6F00C002EF00C043B707008038
:102D90009385470037050080EF00807CA30504FE83
:102DA0006F000001130000006FF05FF213000000DD
:102DB0006FF0DFF1130101FE232E1100232C81009F
:102DC00013040102930704FE93850700B7570070B0
:102DD0001385C780EFD0DFE5930714FE93850700C6
:102DE000B75700701385C780EFD09FE4930724FE88
:102DF00093850700B75700701385C780EFD05FE356
:102E0000930734FE93850700B75700701385C7807A
:102E1000EFD01FE2834704FE13978701834714FE18
:102E2000939707013367F700834724FE9397870042
:102E3000B367F700034734FEB3E7E7002322F4FE4D
:102E4000930704FE93850700B75700701385C7806A
:102E5000EFD01FDE930714FE93850700B75700706D
:102E60001385C780EFD0DFDC930724FE938507002E
:102E7000B75700701385C780EFD09FDB930734FEF0
:102E800093850700B75700701385C780EFD05FDACE
:102E9000834704FE13978701834714FE9397070126
:102EA0003367F700834724FE93978700B367F700E3
:102EB000034734FEB3E7E7002326F4FEEFE04FD7E5
:102EC000232404FE6F0000030325C4FEEFE08FE01F
:102ED0000327C4FEB7170000B307F7002326F4FE4C
:102EE00013052000EF000062832784FE93871700FC
:102EF0002324F4FE032784FE832744FEE366F7FCC5
:102F00009305F000B757007013854781EFF09F9845
:102F1000130000008320C101032481011301010279
:102F200067800000130101FE232E1100232C810075
:102F3000130401029306D4FE1307E4FE9307F4FE84
:102F4000138606009305070013850700EFE08FB88E
:102F50008347F4FE93850700B75700701385C78039
:102F6000EFD05FC88347E4FE93850700B757007032
:102F70001385C780EFD01FC78347D4FE9385070012
:102F8000B75700701385C780EFD0DFC59305F000F9
:102F9000B757007013854781EFF0DF8F13000000F3
:102FA0008320C10103248101130101026780000015
:102FB000130101FD232611022324810213040103BE
:102FC000930784FD93850700B75700701385C7806A
:102FD000EFD01FC6930794FD93850700B757007085
:102FE0001385C780EFD0DFC49307A4FD9385070046
:102FF000B75700701385C780EFD09FC39307B4FD08
:1030000093850700B75700701385C780EFD05FC264
:10301000834784FD13978701834794FD93970701A6
:103020003367F7008347A4FD93978700B367F700E2
:103030000347B4FDB3E7E7002320F4FE930784FDC4
:1030400093850700B75700701385C780EFD05FBE28
:10305000930794FD93850700B75700701385C780C9
:10306000EFD01FBD9307A4FD93850700B7570070ED
:103070001385C780EFD0DFBB9307B4FD93850700AE
:10308000B75700701385C780EFD09FBA834784FD80
:1030900013978701834794FD939707013367F700E0
:1030A0008347A4FD93978700B367F7000347B4FDF8
:1030B000B3E7E7002322F4FEEFE08FB7232404FEFA
:1030C000832704FE2326F4FE832704FE638A070C6D
:1030D0006F008006B73700709385077CB757007084
:1030E0001385C780EFD0DFEF232EA4FC0327C4FE97
:1030F000B7F7FFFFB307F7002326F4FE032784FE8C
:103100008327C4FDB307F7002324F4FE371600001D
:10311000B73700709385077C032544FEEFE0CFD9D5
:10312000032744FEB7170000B307F7002322F4FE7D
:1031300013058000EF00003D0327C4FEB717000011
:10314000E3EAE7F88327C4FE638C0704B73700700F
:103150009385077CB75700701385C780EFD05FE871
:10316000232EA4FC0327C4FEB7F7FFFFB307F70025
:103170002326F4FE032784FE8327C4FDB307F7004C
:103180002324F4FE37160000B73700709385077CC0
:10319000032544FEEFE04FD213058000EF00803698
:1031A0009305F000B757007013854781EFF08FEE5D
:1031B000130000008320C1020324810213010103D4
:1031C00067800000130101FD2326110223248102E0
:1031D0001304010337F3FFFF33016100EFE04FA554
:1031E00093072000232EF4FCB70700802320F4FE71
:1031F000232204FE8327C4FD638A0714232604FECA
:103200006F000014B7F7FFFF938747FE130704FF13
:10321000B307F7003716000093850700032544FE27
:10322000EFE00F95232404FE6F00000E832784FE39
:103230009397270037F7FFFF930604FF3387E600D5
:10324000B307F70083C747FEA30DF4FC832784FE72
:10325000939727009387170037F7FFFF930604FF24
:103260003387E600B307F70083C747FE230DF4FC5E
:10327000832784FE939727009387270037F7FFFF64
:10328000930604FF3387E600B307F70083C747FEC2
:10329000A30CF4FC832784FE9397270093873700C1
:1032A00037F7FFFF930604FF3387E600B307F70005
:1032B00083C747FE230CF4FC834784FD13978701E3
:1032C000834794FD939707013367F7008347A4FD75
:1032D000939787003367F7008347B4FDB367F70020
:1032E000232AF4FC832784FE93972700032704FEF8
:1032F000B307F700032744FD23A0E700832784FEDC
:10330000938717002324F4FE032784FE9307F03FDE
:10331000E3FEE7F0032744FEB7170000B307F7000A
:103320002322F4FE032704FEB7470000B307F7008B
:103330002320F4FE8327C4FE938717002326F4FE80
:103340000327C4FE8327C4FDE36EF7EA13000000E1
:1033500037130000330161008320C102032481027E
:103360001301010367800000130101FE232E1100E9
:10337000232C810013040102930704FE93850700A8
:10338000B75700701385C780EFD09F8A930714FE4C
:1033900093850700B75700701385C780EFD05F890A
:1033A000930724FE93850700B75700701385C780E5
:1033B000EFD01F88930734FE93850700B75700703E
:1033C0001385C780EFD0DF86834704FE13978701FC
:1033D000834714FE939707013367F700834724FE62
:1033E00093978700B367F700034734FEB3E7E7001E
:1033F0002322F4FE930704FE93850700B75700705D
:103400001385C780EFD0DF82930714FE93850700F2
:10341000B75700701385C780EFD09F81930724FEB4
:1034200093850700B75700701385C780EFD05F8082
:10343000930734FE93850700B75700701385C78044
:10344000EFD00FFF834704FE13978701834714FED5
:10345000939707013367F700834724FE939787000C
:10346000B367F700034734FEB3E7E7002324F4FE15
:10347000EFD01FFC832744FE63840706232604FE47
:103480006F00400537160000B73700709385077C42
:10349000032584FEEFD0DFED37160000B73700704C
:1034A0009385077CB75700701385C780EFD09FC7FF
:1034B000032784FEB7170000B307F7002324F4FEA8
:1034C00013054000EF0000048327C4FE9387170014
:1034D0002326F4FE0327C4FE832744FEE364F7FAA1
:1034E0009305F000B757007013854781EFF08FBA4E
:1034F000130000008320C101032481011301010294
:1035000067800000130101FD23261102232481029C
:103510001304010393070500A30FF4FCB7570070D1
:1035200013854781EFF0CFCB2326A4FE8347F4FD1C
:103530000327C4FEB347F7002326F4FE8325C4FE09
:10354000B757007013854781EFF0CFB41300000028
:103550008320C1020324810213010103678000005C
:10356000130101FD23261102232481021304010308
:10357000232EA4FC232CB4FC232604FEB70708004A
:103580002326F4FEEFC01FE9EFF00FDD232604FE33
:103590006F00800113054000EFF0DFF68327C4FEC3
:1035A000938717002326F4FE0327C4FEB7070800FD
:1035B000E3D2E7FE73504030B700008093800000F4
:1035C00067800000130000008320C10203248102F1
:1035D00013010103678000001303F00013070500C7
:1035E000637EC3029377F7006390070A639205082E
:1035F000937606FF1376F600B386E6002320B70025
:103600002322B7002324B7002326B700130707019E
:10361000E366D7FE6314060067800000B306C3406C
:103620009396260097020000B38656006780C60076
:103630002307B700A306B7002306B700A305B7000A
:103640002305B700A304B7002304B700A303B70002
:103650002303B700A302B7002302B700A301B700FA
:103660002301B700A300B7002300B7006780000064
:1036700093F5F50F93968500B3E5D5009396050174
:10368000B3E5D5006FF0DFF69396270097020000B0
:10369000B386560093820000E78006FA938002000A
:1036A000938707FF3307F7403306F600E378C3F646
:1036B0006FF0DFF3000000000000000000000000D9
:1036C00068656C6C6F000000882D0070AC2D007078
:1036D000AC2D0070AC2D0070342D0070AC2D00703E
:1036E000AC2D0070AC2D0070182D0070AC2D00704A
:1036F000AC2D0070AC2D0070AC2D0070AC2D0070A6
:10370000AC2D0070AC2D0070AC2D0070502D0070F1
:10371000AC2D0070AC2D0070AC2D0070AC2D007085
:103720006C2D007000000000000000000000000090
:10373000BC060070DC060070FC0600701C07007000
:103740003C0700705C0700707C0700709C070070ED
:10375000BC070070DC070070FC0700701C080070DC
:103760003C0800705C0800707C0800709C080070C9
:10377000BC080070DC080070FC0800701C090070B8
:103780003C0900705C0900707C0900709C090070A5
:10379000BC090070DC090070FC0900701C0A007094
:1037A0003C0A00705C0A00707C0A00709C0A007081
:040000057000000087
:00000001FF
